{
  "contractName": "Certicryp",
  "abi": [
    {
      "inputs": [],
      "stateMutability": "nonpayable",
      "type": "constructor"
    },
    {
      "anonymous": false,
      "inputs": [
        {
          "indexed": true,
          "internalType": "address",
          "name": "owner",
          "type": "address"
        },
        {
          "indexed": true,
          "internalType": "address",
          "name": "approved",
          "type": "address"
        },
        {
          "indexed": true,
          "internalType": "uint256",
          "name": "tokenId",
          "type": "uint256"
        }
      ],
      "name": "Approval",
      "type": "event"
    },
    {
      "anonymous": false,
      "inputs": [
        {
          "indexed": true,
          "internalType": "address",
          "name": "owner",
          "type": "address"
        },
        {
          "indexed": true,
          "internalType": "address",
          "name": "operator",
          "type": "address"
        },
        {
          "indexed": false,
          "internalType": "bool",
          "name": "approved",
          "type": "bool"
        }
      ],
      "name": "ApprovalForAll",
      "type": "event"
    },
    {
      "anonymous": false,
      "inputs": [
        {
          "indexed": true,
          "internalType": "address",
          "name": "to",
          "type": "address"
        },
        {
          "indexed": true,
          "internalType": "uint256",
          "name": "tokenId",
          "type": "uint256"
        }
      ],
      "name": "Attest",
      "type": "event"
    },
    {
      "anonymous": false,
      "inputs": [
        {
          "indexed": false,
          "internalType": "uint256",
          "name": "_fromTokenId",
          "type": "uint256"
        },
        {
          "indexed": false,
          "internalType": "uint256",
          "name": "_toTokenId",
          "type": "uint256"
        }
      ],
      "name": "BatchMetadataUpdate",
      "type": "event"
    },
    {
      "anonymous": false,
      "inputs": [
        {
          "indexed": false,
          "internalType": "uint256",
          "name": "_tokenId",
          "type": "uint256"
        }
      ],
      "name": "MetadataUpdate",
      "type": "event"
    },
    {
      "anonymous": false,
      "inputs": [
        {
          "indexed": true,
          "internalType": "address",
          "name": "previousOwner",
          "type": "address"
        },
        {
          "indexed": true,
          "internalType": "address",
          "name": "newOwner",
          "type": "address"
        }
      ],
      "name": "OwnershipTransferred",
      "type": "event"
    },
    {
      "anonymous": false,
      "inputs": [
        {
          "indexed": true,
          "internalType": "address",
          "name": "to",
          "type": "address"
        },
        {
          "indexed": true,
          "internalType": "uint256",
          "name": "tokenId",
          "type": "uint256"
        }
      ],
      "name": "Revoke",
      "type": "event"
    },
    {
      "anonymous": false,
      "inputs": [
        {
          "indexed": true,
          "internalType": "address",
          "name": "from",
          "type": "address"
        },
        {
          "indexed": true,
          "internalType": "address",
          "name": "to",
          "type": "address"
        },
        {
          "indexed": true,
          "internalType": "uint256",
          "name": "tokenId",
          "type": "uint256"
        }
      ],
      "name": "Transfer",
      "type": "event"
    },
    {
      "anonymous": false,
      "inputs": [
        {
          "indexed": false,
          "internalType": "address",
          "name": "university",
          "type": "address"
        }
      ],
      "name": "UniversityApproved",
      "type": "event"
    },
    {
      "anonymous": false,
      "inputs": [
        {
          "indexed": false,
          "internalType": "address",
          "name": "university",
          "type": "address"
        }
      ],
      "name": "UniversityRevoked",
      "type": "event"
    },
    {
      "inputs": [
        {
          "internalType": "address",
          "name": "to",
          "type": "address"
        },
        {
          "internalType": "uint256",
          "name": "tokenId",
          "type": "uint256"
        }
      ],
      "name": "approve",
      "outputs": [],
      "stateMutability": "nonpayable",
      "type": "function"
    },
    {
      "inputs": [
        {
          "internalType": "address",
          "name": "",
          "type": "address"
        }
      ],
      "name": "approvedUniversities",
      "outputs": [
        {
          "internalType": "bool",
          "name": "",
          "type": "bool"
        }
      ],
      "stateMutability": "view",
      "type": "function"
    },
    {
      "inputs": [
        {
          "internalType": "address",
          "name": "owner",
          "type": "address"
        }
      ],
      "name": "balanceOf",
      "outputs": [
        {
          "internalType": "uint256",
          "name": "",
          "type": "uint256"
        }
      ],
      "stateMutability": "view",
      "type": "function"
    },
    {
      "inputs": [
        {
          "internalType": "uint256",
          "name": "tokenId",
          "type": "uint256"
        }
      ],
      "name": "getApproved",
      "outputs": [
        {
          "internalType": "address",
          "name": "",
          "type": "address"
        }
      ],
      "stateMutability": "view",
      "type": "function"
    },
    {
      "inputs": [
        {
          "internalType": "address",
          "name": "owner",
          "type": "address"
        },
        {
          "internalType": "address",
          "name": "operator",
          "type": "address"
        }
      ],
      "name": "isApprovedForAll",
      "outputs": [
        {
          "internalType": "bool",
          "name": "",
          "type": "bool"
        }
      ],
      "stateMutability": "view",
      "type": "function"
    },
    {
      "inputs": [],
      "name": "name",
      "outputs": [
        {
          "internalType": "string",
          "name": "",
          "type": "string"
        }
      ],
      "stateMutability": "view",
      "type": "function"
    },
    {
      "inputs": [],
      "name": "owner",
      "outputs": [
        {
          "internalType": "address",
          "name": "",
          "type": "address"
        }
      ],
      "stateMutability": "view",
      "type": "function"
    },
    {
      "inputs": [
        {
          "internalType": "uint256",
          "name": "tokenId",
          "type": "uint256"
        }
      ],
      "name": "ownerOf",
      "outputs": [
        {
          "internalType": "address",
          "name": "",
          "type": "address"
        }
      ],
      "stateMutability": "view",
      "type": "function"
    },
    {
      "inputs": [],
      "name": "renounceOwnership",
      "outputs": [],
      "stateMutability": "nonpayable",
      "type": "function"
    },
    {
      "inputs": [
        {
          "internalType": "address",
          "name": "from",
          "type": "address"
        },
        {
          "internalType": "address",
          "name": "to",
          "type": "address"
        },
        {
          "internalType": "uint256",
          "name": "tokenId",
          "type": "uint256"
        }
      ],
      "name": "safeTransferFrom",
      "outputs": [],
      "stateMutability": "nonpayable",
      "type": "function"
    },
    {
      "inputs": [
        {
          "internalType": "address",
          "name": "from",
          "type": "address"
        },
        {
          "internalType": "address",
          "name": "to",
          "type": "address"
        },
        {
          "internalType": "uint256",
          "name": "tokenId",
          "type": "uint256"
        },
        {
          "internalType": "bytes",
          "name": "data",
          "type": "bytes"
        }
      ],
      "name": "safeTransferFrom",
      "outputs": [],
      "stateMutability": "nonpayable",
      "type": "function"
    },
    {
      "inputs": [
        {
          "internalType": "address",
          "name": "operator",
          "type": "address"
        },
        {
          "internalType": "bool",
          "name": "approved",
          "type": "bool"
        }
      ],
      "name": "setApprovalForAll",
      "outputs": [],
      "stateMutability": "nonpayable",
      "type": "function"
    },
    {
      "inputs": [],
      "name": "symbol",
      "outputs": [
        {
          "internalType": "string",
          "name": "",
          "type": "string"
        }
      ],
      "stateMutability": "view",
      "type": "function"
    },
    {
      "inputs": [
        {
          "internalType": "address",
          "name": "from",
          "type": "address"
        },
        {
          "internalType": "address",
          "name": "to",
          "type": "address"
        },
        {
          "internalType": "uint256",
          "name": "tokenId",
          "type": "uint256"
        }
      ],
      "name": "transferFrom",
      "outputs": [],
      "stateMutability": "nonpayable",
      "type": "function"
    },
    {
      "inputs": [
        {
          "internalType": "address",
          "name": "newOwner",
          "type": "address"
        }
      ],
      "name": "transferOwnership",
      "outputs": [],
      "stateMutability": "nonpayable",
      "type": "function"
    },
    {
      "inputs": [
        {
          "internalType": "bytes4",
          "name": "interfaceId",
          "type": "bytes4"
        }
      ],
      "name": "supportsInterface",
      "outputs": [
        {
          "internalType": "bool",
          "name": "",
          "type": "bool"
        }
      ],
      "stateMutability": "view",
      "type": "function"
    },
    {
      "inputs": [
        {
          "internalType": "address",
          "name": "university",
          "type": "address"
        }
      ],
      "name": "approveUniversity",
      "outputs": [],
      "stateMutability": "nonpayable",
      "type": "function"
    },
    {
      "inputs": [
        {
          "internalType": "address",
          "name": "university",
          "type": "address"
        }
      ],
      "name": "revokeUniversity",
      "outputs": [],
      "stateMutability": "nonpayable",
      "type": "function"
    },
    {
      "inputs": [
        {
          "internalType": "address",
          "name": "to",
          "type": "address"
        },
        {
          "internalType": "string",
          "name": "metadata",
          "type": "string"
        }
      ],
      "name": "mintCertificate",
      "outputs": [],
      "stateMutability": "nonpayable",
      "type": "function"
    },
    {
      "inputs": [
        {
          "internalType": "uint256",
          "name": "tokenId",
          "type": "uint256"
        }
      ],
      "name": "burn",
      "outputs": [],
      "stateMutability": "nonpayable",
      "type": "function"
    },
    {
      "inputs": [
        {
          "internalType": "uint256",
          "name": "tokenId",
          "type": "uint256"
        }
      ],
      "name": "revoke",
      "outputs": [],
      "stateMutability": "nonpayable",
      "type": "function"
    },
    {
      "inputs": [
        {
          "internalType": "uint256",
          "name": "tokenId",
          "type": "uint256"
        }
      ],
      "name": "tokenURI",
      "outputs": [
        {
          "internalType": "string",
          "name": "",
          "type": "string"
        }
      ],
      "stateMutability": "view",
      "type": "function"
    }
  ],
  "bytecode": "0x60806040523480156200001157600080fd5b506040518060400160405280600981526020017f43657274696372797000000000000000000000000000000000000000000000008152506040518060400160405280600381526020017f435254000000000000000000000000000000000000000000000000000000000081525081600090816200008f919062000412565b508060019081620000a1919062000412565b505050620000c4620000b8620000ca60201b60201c565b620000d260201b60201c565b620004f9565b600033905090565b6000600760009054906101000a900473ffffffffffffffffffffffffffffffffffffffff16905081600760006101000a81548173ffffffffffffffffffffffffffffffffffffffff021916908373ffffffffffffffffffffffffffffffffffffffff1602179055508173ffffffffffffffffffffffffffffffffffffffff168173ffffffffffffffffffffffffffffffffffffffff167f8be0079c531659141344cd1fd0a4f28419497f9722a3daafe3b4186f6b6457e060405160405180910390a35050565b600081519050919050565b7f4e487b7100000000000000000000000000000000000000000000000000000000600052604160045260246000fd5b7f4e487b7100000000000000000000000000000000000000000000000000000000600052602260045260246000fd5b600060028204905060018216806200021a57607f821691505b60208210810362000230576200022f620001d2565b5b50919050565b60008190508160005260206000209050919050565b60006020601f8301049050919050565b600082821b905092915050565b6000600883026200029a7fffffffffffffffffffffffffffffffffffffffffffffffffffffffffffffffff826200025b565b620002a686836200025b565b95508019841693508086168417925050509392505050565b6000819050919050565b6000819050919050565b6000620002f3620002ed620002e784620002be565b620002c8565b620002be565b9050919050565b6000819050919050565b6200030f83620002d2565b620003276200031e82620002fa565b84845462000268565b825550505050565b600090565b6200033e6200032f565b6200034b81848462000304565b505050565b5b8181101562000373576200036760008262000334565b60018101905062000351565b5050565b601f821115620003c2576200038c8162000236565b62000397846200024b565b81016020851015620003a7578190505b620003bf620003b6856200024b565b83018262000350565b50505b505050565b600082821c905092915050565b6000620003e760001984600802620003c7565b1980831691505092915050565b6000620004028383620003d4565b9150826002028217905092915050565b6200041d8262000198565b67ffffffffffffffff811115620004395762000438620001a3565b5b62000445825462000201565b6200045282828562000377565b600060209050601f8311600181146200048a576000841562000475578287015190505b620004818582620003f4565b865550620004f1565b601f1984166200049a8662000236565b60005b82811015620004c4578489015182556001820191506020850194506020810190506200049d565b86831015620004e45784890151620004e0601f891682620003d4565b8355505b6001600288020188555050505b505050505050565b61354580620005096000396000f3fe608060405234801561001057600080fd5b50600436106101425760003560e01c80636352211e116100b8578063a22cb4651161007c578063a22cb4651461035f578063b88d4fde1461037b578063c87b56dd14610397578063e4ee8755146103c7578063e985e9c5146103e3578063f2fde38b1461041357610142565b80636352211e146102b957806370a08231146102e9578063715018a6146103195780638da5cb5b1461032357806395d89b411461034157610142565b80630cbaf2e91161010a5780630cbaf2e9146101fd57806320c5429b1461022d57806323b872dd1461024957806342842e0e1461026557806342966c6814610281578063545647f71461029d57610142565b806301ffc9a71461014757806306fdde03146101775780630712249f14610195578063081812fc146101b1578063095ea7b3146101e1575b600080fd5b610161600480360381019061015c9190612212565b61042f565b60405161016e919061225a565b60405180910390f35b61017f610441565b60405161018c9190612305565b60405180910390f35b6101af60048036038101906101aa91906124ba565b6104d3565b005b6101cb60048036038101906101c6919061254c565b610590565b6040516101d89190612588565b60405180910390f35b6101fb60048036038101906101f691906125a3565b6105d6565b005b610217600480360381019061021291906125e3565b6106ed565b604051610224919061225a565b60405180910390f35b6102476004803603810190610242919061254c565b61070d565b005b610263600480360381019061025e9190612610565b610721565b005b61027f600480360381019061027a9190612610565b610781565b005b61029b6004803603810190610296919061254c565b6107a1565b005b6102b760048036038101906102b291906125e3565b610823565b005b6102d360048036038101906102ce919061254c565b6108bd565b6040516102e09190612588565b60405180910390f35b61030360048036038101906102fe91906125e3565b610943565b6040516103109190612672565b60405180910390f35b6103216109fa565b005b61032b610a0e565b6040516103389190612588565b60405180910390f35b610349610a38565b6040516103569190612305565b60405180910390f35b610379600480360381019061037491906126b9565b610aca565b005b6103956004803603810190610390919061279a565b610ae0565b005b6103b160048036038101906103ac919061254c565b610b42565b6040516103be9190612305565b60405180910390f35b6103e160048036038101906103dc91906125e3565b610b54565b005b6103fd60048036038101906103f8919061281d565b610bee565b60405161040a919061225a565b60405180910390f35b61042d600480360381019061042891906125e3565b610c82565b005b600061043a82610d05565b9050919050565b6060600080546104509061288c565b80601f016020809104026020016040519081016040528092919081815260200182805461047c9061288c565b80156104c95780601f1061049e576101008083540402835291602001916104c9565b820191906000526020600020905b8154815290600101906020018083116104ac57829003601f168201915b5050505050905090565b600960003373ffffffffffffffffffffffffffffffffffffffff1673ffffffffffffffffffffffffffffffffffffffff16815260200190815260200160002060009054906101000a900460ff1661055f576040517f08c379a00000000000000000000000000000000000000000000000000000000081526004016105569061292f565b60405180910390fd5b600061056b6008610d66565b90506105776008610d74565b6105818382610d8a565b61058b8183610da8565b505050565b600061059b82610e4c565b6004600083815260200190815260200160002060009054906101000a900473ffffffffffffffffffffffffffffffffffffffff169050919050565b60006105e1826108bd565b90508073ffffffffffffffffffffffffffffffffffffffff168373ffffffffffffffffffffffffffffffffffffffff1603610651576040517f08c379a0000000000000000000000000000000000000000000000000000000008152600401610648906129c1565b60405180910390fd5b8073ffffffffffffffffffffffffffffffffffffffff16610670610e97565b73ffffffffffffffffffffffffffffffffffffffff16148061069f575061069e81610699610e97565b610bee565b5b6106de576040517f08c379a00000000000000000000000000000000000000000000000000000000081526004016106d590612a53565b60405180910390fd5b6106e88383610e9f565b505050565b60096020528060005260406000206000915054906101000a900460ff1681565b610715610f58565b61071e81610fd6565b50565b61073261072c610e97565b82610fe2565b610771576040517f08c379a000000000000000000000000000000000000000000000000000000000815260040161076890612ae5565b60405180910390fd5b61077c838383611077565b505050565b61079c83838360405180602001604052806000815250610ae0565b505050565b3373ffffffffffffffffffffffffffffffffffffffff166107c1826108bd565b73ffffffffffffffffffffffffffffffffffffffff1614610817576040517f08c379a000000000000000000000000000000000000000000000000000000000815260040161080e90612b77565b60405180910390fd5b61082081610fd6565b50565b61082b610f58565b6001600960008373ffffffffffffffffffffffffffffffffffffffff1673ffffffffffffffffffffffffffffffffffffffff16815260200190815260200160002060006101000a81548160ff0219169083151502179055507fe095916d939a032e249fe8d5f535f7144d0835b0edaa9a57aa245c1aa961468e816040516108b29190612588565b60405180910390a150565b6000806108c983611370565b9050600073ffffffffffffffffffffffffffffffffffffffff168173ffffffffffffffffffffffffffffffffffffffff160361093a576040517f08c379a000000000000000000000000000000000000000000000000000000000815260040161093190612be3565b60405180910390fd5b80915050919050565b60008073ffffffffffffffffffffffffffffffffffffffff168273ffffffffffffffffffffffffffffffffffffffff16036109b3576040517f08c379a00000000000000000000000000000000000000000000000000000000081526004016109aa90612c75565b60405180910390fd5b600360008373ffffffffffffffffffffffffffffffffffffffff1673ffffffffffffffffffffffffffffffffffffffff168152602001908152602001600020549050919050565b610a02610f58565b610a0c60006113ad565b565b6000600760009054906101000a900473ffffffffffffffffffffffffffffffffffffffff16905090565b606060018054610a479061288c565b80601f0160208091040260200160405190810160405280929190818152602001828054610a739061288c565b8015610ac05780601f10610a9557610100808354040283529160200191610ac0565b820191906000526020600020905b815481529060010190602001808311610aa357829003601f168201915b5050505050905090565b610adc610ad5610e97565b8383611473565b5050565b610af1610aeb610e97565b83610fe2565b610b30576040517f08c379a0000000000000000000000000000000000000000000000000000000008152600401610b2790612ae5565b60405180910390fd5b610b3c848484846115df565b50505050565b6060610b4d8261163b565b9050919050565b610b5c610f58565b6000600960008373ffffffffffffffffffffffffffffffffffffffff1673ffffffffffffffffffffffffffffffffffffffff16815260200190815260200160002060006101000a81548160ff0219169083151502179055507f13ac9aa2c7e4f68cb10b8d7ba445383b32e9d48311cba0e322f9f932ad8872b981604051610be39190612588565b60405180910390a150565b6000600560008473ffffffffffffffffffffffffffffffffffffffff1673ffffffffffffffffffffffffffffffffffffffff16815260200190815260200160002060008373ffffffffffffffffffffffffffffffffffffffff1673ffffffffffffffffffffffffffffffffffffffff16815260200190815260200160002060009054906101000a900460ff16905092915050565b610c8a610f58565b600073ffffffffffffffffffffffffffffffffffffffff168173ffffffffffffffffffffffffffffffffffffffff1603610cf9576040517f08c379a0000000000000000000000000000000000000000000000000000000008152600401610cf090612d07565b60405180910390fd5b610d02816113ad565b50565b6000634906490660e01b7bffffffffffffffffffffffffffffffffffffffffffffffffffffffff1916827bffffffffffffffffffffffffffffffffffffffffffffffffffffffff19161480610d5f5750610d5e8261174d565b5b9050919050565b600081600001549050919050565b6001816000016000828254019250508190555050565b610da482826040518060200160405280600081525061182f565b5050565b610db18261188a565b610df0576040517f08c379a0000000000000000000000000000000000000000000000000000000008152600401610de790612d99565b60405180910390fd5b80600660008481526020019081526020016000209081610e109190612f65565b507ff8e1a15aba9398e019f0b49df1a4fde98ee17ae345cb5f6b5e2c27f5033e8ce782604051610e409190612672565b60405180910390a15050565b610e558161188a565b610e94576040517f08c379a0000000000000000000000000000000000000000000000000000000008152600401610e8b90612be3565b60405180910390fd5b50565b600033905090565b816004600083815260200190815260200160002060006101000a81548173ffffffffffffffffffffffffffffffffffffffff021916908373ffffffffffffffffffffffffffffffffffffffff160217905550808273ffffffffffffffffffffffffffffffffffffffff16610f12836108bd565b73ffffffffffffffffffffffffffffffffffffffff167f8c5be1e5ebec7d5bd14f71427d1e84f3dd0314c0f7b2291e5b200ac8c7c3b92560405160405180910390a45050565b610f60610e97565b73ffffffffffffffffffffffffffffffffffffffff16610f7e610a0e565b73ffffffffffffffffffffffffffffffffffffffff1614610fd4576040517f08c379a0000000000000000000000000000000000000000000000000000000008152600401610fcb90613083565b60405180910390fd5b565b610fdf816118cb565b50565b600080610fee836108bd565b90508073ffffffffffffffffffffffffffffffffffffffff168473ffffffffffffffffffffffffffffffffffffffff161480611030575061102f8185610bee565b5b8061106e57508373ffffffffffffffffffffffffffffffffffffffff1661105684610590565b73ffffffffffffffffffffffffffffffffffffffff16145b91505092915050565b8273ffffffffffffffffffffffffffffffffffffffff16611097826108bd565b73ffffffffffffffffffffffffffffffffffffffff16146110ed576040517f08c379a00000000000000000000000000000000000000000000000000000000081526004016110e490613115565b60405180910390fd5b600073ffffffffffffffffffffffffffffffffffffffff168273ffffffffffffffffffffffffffffffffffffffff160361115c576040517f08c379a0000000000000000000000000000000000000000000000000000000008152600401611153906131a7565b60405180910390fd5b611169838383600161191e565b8273ffffffffffffffffffffffffffffffffffffffff16611189826108bd565b73ffffffffffffffffffffffffffffffffffffffff16146111df576040517f08c379a00000000000000000000000000000000000000000000000000000000081526004016111d690613115565b60405180910390fd5b6004600082815260200190815260200160002060006101000a81549073ffffffffffffffffffffffffffffffffffffffff02191690556001600360008573ffffffffffffffffffffffffffffffffffffffff1673ffffffffffffffffffffffffffffffffffffffff168152602001908152602001600020600082825403925050819055506001600360008473ffffffffffffffffffffffffffffffffffffffff1673ffffffffffffffffffffffffffffffffffffffff16815260200190815260200160002060008282540192505081905550816002600083815260200190815260200160002060006101000a81548173ffffffffffffffffffffffffffffffffffffffff021916908373ffffffffffffffffffffffffffffffffffffffff160217905550808273ffffffffffffffffffffffffffffffffffffffff168473ffffffffffffffffffffffffffffffffffffffff167fddf252ad1be2c89b69c2b068fc378daa952ba7f163c4a11628f55a4df523b3ef60405160405180910390a461136b8383836001611924565b505050565b60006002600083815260200190815260200160002060009054906101000a900473ffffffffffffffffffffffffffffffffffffffff169050919050565b6000600760009054906101000a900473ffffffffffffffffffffffffffffffffffffffff16905081600760006101000a81548173ffffffffffffffffffffffffffffffffffffffff021916908373ffffffffffffffffffffffffffffffffffffffff1602179055508173ffffffffffffffffffffffffffffffffffffffff168173ffffffffffffffffffffffffffffffffffffffff167f8be0079c531659141344cd1fd0a4f28419497f9722a3daafe3b4186f6b6457e060405160405180910390a35050565b8173ffffffffffffffffffffffffffffffffffffffff168373ffffffffffffffffffffffffffffffffffffffff16036114e1576040517f08c379a00000000000000000000000000000000000000000000000000000000081526004016114d890613213565b60405180910390fd5b80600560008573ffffffffffffffffffffffffffffffffffffffff1673ffffffffffffffffffffffffffffffffffffffff16815260200190815260200160002060008473ffffffffffffffffffffffffffffffffffffffff1673ffffffffffffffffffffffffffffffffffffffff16815260200190815260200160002060006101000a81548160ff0219169083151502179055508173ffffffffffffffffffffffffffffffffffffffff168373ffffffffffffffffffffffffffffffffffffffff167f17307eab39ab6107e8899845ad3d59bd9653f200f220920489ca2b5937696c31836040516115d2919061225a565b60405180910390a3505050565b6115ea848484611077565b6115f68484848461192a565b611635576040517f08c379a000000000000000000000000000000000000000000000000000000000815260040161162c906132a5565b60405180910390fd5b50505050565b606061164682610e4c565b60006006600084815260200190815260200160002080546116669061288c565b80601f01602080910402602001604051908101604052809291908181526020018280546116929061288c565b80156116df5780601f106116b4576101008083540402835291602001916116df565b820191906000526020600020905b8154815290600101906020018083116116c257829003601f168201915b5050505050905060006116f0611ab1565b90506000815103611705578192505050611748565b60008251111561173a578082604051602001611722929190613301565b60405160208183030381529060405292505050611748565b61174384611ac8565b925050505b919050565b60007f80ac58cd000000000000000000000000000000000000000000000000000000007bffffffffffffffffffffffffffffffffffffffffffffffffffffffff1916827bffffffffffffffffffffffffffffffffffffffffffffffffffffffff1916148061181857507f5b5e139f000000000000000000000000000000000000000000000000000000007bffffffffffffffffffffffffffffffffffffffffffffffffffffffff1916827bffffffffffffffffffffffffffffffffffffffffffffffffffffffff1916145b80611828575061182782611b30565b5b9050919050565b6118398383611b9a565b611846600084848461192a565b611885576040517f08c379a000000000000000000000000000000000000000000000000000000000815260040161187c906132a5565b60405180910390fd5b505050565b60008073ffffffffffffffffffffffffffffffffffffffff166118ac83611370565b73ffffffffffffffffffffffffffffffffffffffff1614159050919050565b6118d481611db7565b60006006600083815260200190815260200160002080546118f49061288c565b90501461191b5760066000828152602001908152602001600020600061191a9190612149565b5b50565b50505050565b50505050565b600061194b8473ffffffffffffffffffffffffffffffffffffffff16611f05565b15611aa4578373ffffffffffffffffffffffffffffffffffffffff1663150b7a02611974610e97565b8786866040518563ffffffff1660e01b8152600401611996949392919061337a565b6020604051808303816000875af19250505080156119d257506040513d601f19601f820116820180604052508101906119cf91906133db565b60015b611a54573d8060008114611a02576040519150601f19603f3d011682016040523d82523d6000602084013e611a07565b606091505b506000815103611a4c576040517f08c379a0000000000000000000000000000000000000000000000000000000008152600401611a43906132a5565b60405180910390fd5b805181602001fd5b63150b7a0260e01b7bffffffffffffffffffffffffffffffffffffffffffffffffffffffff1916817bffffffffffffffffffffffffffffffffffffffffffffffffffffffff191614915050611aa9565b600190505b949350505050565b606060405180602001604052806000815250905090565b6060611ad382610e4c565b6000611add611ab1565b90506000815111611afd5760405180602001604052806000815250611b28565b80611b0784611f28565b604051602001611b18929190613301565b6040516020818303038152906040525b915050919050565b60007f01ffc9a7000000000000000000000000000000000000000000000000000000007bffffffffffffffffffffffffffffffffffffffffffffffffffffffff1916827bffffffffffffffffffffffffffffffffffffffffffffffffffffffff1916149050919050565b600073ffffffffffffffffffffffffffffffffffffffff168273ffffffffffffffffffffffffffffffffffffffff1603611c09576040517f08c379a0000000000000000000000000000000000000000000000000000000008152600401611c0090613454565b60405180910390fd5b611c128161188a565b15611c52576040517f08c379a0000000000000000000000000000000000000000000000000000000008152600401611c49906134c0565b60405180910390fd5b611c6060008383600161191e565b611c698161188a565b15611ca9576040517f08c379a0000000000000000000000000000000000000000000000000000000008152600401611ca0906134c0565b60405180910390fd5b6001600360008473ffffffffffffffffffffffffffffffffffffffff1673ffffffffffffffffffffffffffffffffffffffff16815260200190815260200160002060008282540192505081905550816002600083815260200190815260200160002060006101000a81548173ffffffffffffffffffffffffffffffffffffffff021916908373ffffffffffffffffffffffffffffffffffffffff160217905550808273ffffffffffffffffffffffffffffffffffffffff16600073ffffffffffffffffffffffffffffffffffffffff167fddf252ad1be2c89b69c2b068fc378daa952ba7f163c4a11628f55a4df523b3ef60405160405180910390a4611db3600083836001611924565b5050565b6000611dc2826108bd565b9050611dd281600084600161191e565b611ddb826108bd565b90506004600083815260200190815260200160002060006101000a81549073ffffffffffffffffffffffffffffffffffffffff02191690556001600360008373ffffffffffffffffffffffffffffffffffffffff1673ffffffffffffffffffffffffffffffffffffffff168152602001908152602001600020600082825403925050819055506002600083815260200190815260200160002060006101000a81549073ffffffffffffffffffffffffffffffffffffffff021916905581600073ffffffffffffffffffffffffffffffffffffffff168273ffffffffffffffffffffffffffffffffffffffff167fddf252ad1be2c89b69c2b068fc378daa952ba7f163c4a11628f55a4df523b3ef60405160405180910390a4611f01816000846001611924565b5050565b6000808273ffffffffffffffffffffffffffffffffffffffff163b119050919050565b606060006001611f3784611ff6565b01905060008167ffffffffffffffff811115611f5657611f5561238f565b5b6040519080825280601f01601f191660200182016040528015611f885781602001600182028036833780820191505090505b509050600082602001820190505b600115611feb578080600190039150507f3031323334353637383961626364656600000000000000000000000000000000600a86061a8153600a8581611fdf57611fde6134e0565b5b04945060008503611f96575b819350505050919050565b600080600090507a184f03e93ff9f4daa797ed6e38ed64bf6a1f0100000000000000008310612054577a184f03e93ff9f4daa797ed6e38ed64bf6a1f010000000000000000838161204a576120496134e0565b5b0492506040810190505b6d04ee2d6d415b85acef81000000008310612091576d04ee2d6d415b85acef81000000008381612087576120866134e0565b5b0492506020810190505b662386f26fc1000083106120c057662386f26fc1000083816120b6576120b56134e0565b5b0492506010810190505b6305f5e10083106120e9576305f5e10083816120df576120de6134e0565b5b0492506008810190505b612710831061210e576127108381612104576121036134e0565b5b0492506004810190505b606483106121315760648381612127576121266134e0565b5b0492506002810190505b600a8310612140576001810190505b80915050919050565b5080546121559061288c565b6000825580601f106121675750612186565b601f0160209004906000526020600020908101906121859190612189565b5b50565b5b808211156121a257600081600090555060010161218a565b5090565b6000604051905090565b600080fd5b600080fd5b60007fffffffff0000000000000000000000000000000000000000000000000000000082169050919050565b6121ef816121ba565b81146121fa57600080fd5b50565b60008135905061220c816121e6565b92915050565b600060208284031215612228576122276121b0565b5b6000612236848285016121fd565b91505092915050565b60008115159050919050565b6122548161223f565b82525050565b600060208201905061226f600083018461224b565b92915050565b600081519050919050565b600082825260208201905092915050565b60005b838110156122af578082015181840152602081019050612294565b60008484015250505050565b6000601f19601f8301169050919050565b60006122d782612275565b6122e18185612280565b93506122f1818560208601612291565b6122fa816122bb565b840191505092915050565b6000602082019050818103600083015261231f81846122cc565b905092915050565b600073ffffffffffffffffffffffffffffffffffffffff82169050919050565b600061235282612327565b9050919050565b61236281612347565b811461236d57600080fd5b50565b60008135905061237f81612359565b92915050565b600080fd5b600080fd5b7f4e487b7100000000000000000000000000000000000000000000000000000000600052604160045260246000fd5b6123c7826122bb565b810181811067ffffffffffffffff821117156123e6576123e561238f565b5b80604052505050565b60006123f96121a6565b905061240582826123be565b919050565b600067ffffffffffffffff8211156124255761242461238f565b5b61242e826122bb565b9050602081019050919050565b82818337600083830152505050565b600061245d6124588461240a565b6123ef565b9050828152602081018484840111156124795761247861238a565b5b61248484828561243b565b509392505050565b600082601f8301126124a1576124a0612385565b5b81356124b184826020860161244a565b91505092915050565b600080604083850312156124d1576124d06121b0565b5b60006124df85828601612370565b925050602083013567ffffffffffffffff811115612500576124ff6121b5565b5b61250c8582860161248c565b9150509250929050565b6000819050919050565b61252981612516565b811461253457600080fd5b50565b60008135905061254681612520565b92915050565b600060208284031215612562576125616121b0565b5b600061257084828501612537565b91505092915050565b61258281612347565b82525050565b600060208201905061259d6000830184612579565b92915050565b600080604083850312156125ba576125b96121b0565b5b60006125c885828601612370565b92505060206125d985828601612537565b9150509250929050565b6000602082840312156125f9576125f86121b0565b5b600061260784828501612370565b91505092915050565b600080600060608486031215612629576126286121b0565b5b600061263786828701612370565b935050602061264886828701612370565b925050604061265986828701612537565b9150509250925092565b61266c81612516565b82525050565b60006020820190506126876000830184612663565b92915050565b6126968161223f565b81146126a157600080fd5b50565b6000813590506126b38161268d565b92915050565b600080604083850312156126d0576126cf6121b0565b5b60006126de85828601612370565b92505060206126ef858286016126a4565b9150509250929050565b600067ffffffffffffffff8211156127145761271361238f565b5b61271d826122bb565b9050602081019050919050565b600061273d612738846126f9565b6123ef565b9050828152602081018484840111156127595761275861238a565b5b61276484828561243b565b509392505050565b600082601f83011261278157612780612385565b5b813561279184826020860161272a565b91505092915050565b600080600080608085870312156127b4576127b36121b0565b5b60006127c287828801612370565b94505060206127d387828801612370565b93505060406127e487828801612537565b925050606085013567ffffffffffffffff811115612805576128046121b5565b5b6128118782880161276c565b91505092959194509250565b60008060408385031215612834576128336121b0565b5b600061284285828601612370565b925050602061285385828601612370565b9150509250929050565b7f4e487b7100000000000000000000000000000000000000000000000000000000600052602260045260246000fd5b600060028204905060018216806128a457607f821691505b6020821081036128b7576128b661285d565b5b50919050565b7f4f6e6c7920617070726f76656420756e697665727369746965732063616e207060008201527f6572666f726d207468697320616374696f6e0000000000000000000000000000602082015250565b6000612919603283612280565b9150612924826128bd565b604082019050919050565b600060208201905081810360008301526129488161290c565b9050919050565b7f4552433732313a20617070726f76616c20746f2063757272656e74206f776e6560008201527f7200000000000000000000000000000000000000000000000000000000000000602082015250565b60006129ab602183612280565b91506129b68261294f565b604082019050919050565b600060208201905081810360008301526129da8161299e565b9050919050565b7f4552433732313a20617070726f76652063616c6c6572206973206e6f7420746f60008201527f6b656e206f776e6572206f7220617070726f76656420666f7220616c6c000000602082015250565b6000612a3d603d83612280565b9150612a48826129e1565b604082019050919050565b60006020820190508181036000830152612a6c81612a30565b9050919050565b7f4552433732313a2063616c6c6572206973206e6f7420746f6b656e206f776e6560008201527f72206f7220617070726f76656400000000000000000000000000000000000000602082015250565b6000612acf602d83612280565b9150612ada82612a73565b604082019050919050565b60006020820190508181036000830152612afe81612ac2565b9050919050565b7f4f6e6c79206f776e6572206f662074686520746f6b656e2063616e206275726e60008201527f2069740000000000000000000000000000000000000000000000000000000000602082015250565b6000612b61602383612280565b9150612b6c82612b05565b604082019050919050565b60006020820190508181036000830152612b9081612b54565b9050919050565b7f4552433732313a20696e76616c696420746f6b656e2049440000000000000000600082015250565b6000612bcd601883612280565b9150612bd882612b97565b602082019050919050565b60006020820190508181036000830152612bfc81612bc0565b9050919050565b7f4552433732313a2061646472657373207a65726f206973206e6f74206120766160008201527f6c6964206f776e65720000000000000000000000000000000000000000000000602082015250565b6000612c5f602983612280565b9150612c6a82612c03565b604082019050919050565b60006020820190508181036000830152612c8e81612c52565b9050919050565b7f4f776e61626c653a206e6577206f776e657220697320746865207a65726f206160008201527f6464726573730000000000000000000000000000000000000000000000000000602082015250565b6000612cf1602683612280565b9150612cfc82612c95565b604082019050919050565b60006020820190508181036000830152612d2081612ce4565b9050919050565b7f45524337323155524953746f726167653a2055524920736574206f66206e6f6e60008201527f6578697374656e7420746f6b656e000000000000000000000000000000000000602082015250565b6000612d83602e83612280565b9150612d8e82612d27565b604082019050919050565b60006020820190508181036000830152612db281612d76565b9050919050565b60008190508160005260206000209050919050565b60006020601f8301049050919050565b600082821b905092915050565b600060088302612e1b7fffffffffffffffffffffffffffffffffffffffffffffffffffffffffffffffff82612dde565b612e258683612dde565b95508019841693508086168417925050509392505050565b6000819050919050565b6000612e62612e5d612e5884612516565b612e3d565b612516565b9050919050565b6000819050919050565b612e7c83612e47565b612e90612e8882612e69565b848454612deb565b825550505050565b600090565b612ea5612e98565b612eb0818484612e73565b505050565b5b81811015612ed457612ec9600082612e9d565b600181019050612eb6565b5050565b601f821115612f1957612eea81612db9565b612ef384612dce565b81016020851015612f02578190505b612f16612f0e85612dce565b830182612eb5565b50505b505050565b600082821c905092915050565b6000612f3c60001984600802612f1e565b1980831691505092915050565b6000612f558383612f2b565b9150826002028217905092915050565b612f6e82612275565b67ffffffffffffffff811115612f8757612f8661238f565b5b612f91825461288c565b612f9c828285612ed8565b600060209050601f831160018114612fcf5760008415612fbd578287015190505b612fc78582612f49565b86555061302f565b601f198416612fdd86612db9565b60005b8281101561300557848901518255600182019150602085019450602081019050612fe0565b86831015613022578489015161301e601f891682612f2b565b8355505b6001600288020188555050505b505050505050565b7f4f776e61626c653a2063616c6c6572206973206e6f7420746865206f776e6572600082015250565b600061306d602083612280565b915061307882613037565b602082019050919050565b6000602082019050818103600083015261309c81613060565b9050919050565b7f4552433732313a207472616e736665722066726f6d20696e636f72726563742060008201527f6f776e6572000000000000000000000000000000000000000000000000000000602082015250565b60006130ff602583612280565b915061310a826130a3565b604082019050919050565b6000602082019050818103600083015261312e816130f2565b9050919050565b7f4552433732313a207472616e7366657220746f20746865207a65726f2061646460008201527f7265737300000000000000000000000000000000000000000000000000000000602082015250565b6000613191602483612280565b915061319c82613135565b604082019050919050565b600060208201905081810360008301526131c081613184565b9050919050565b7f4552433732313a20617070726f766520746f2063616c6c657200000000000000600082015250565b60006131fd601983612280565b9150613208826131c7565b602082019050919050565b6000602082019050818103600083015261322c816131f0565b9050919050565b7f4552433732313a207472616e7366657220746f206e6f6e20455243373231526560008201527f63656976657220696d706c656d656e7465720000000000000000000000000000602082015250565b600061328f603283612280565b915061329a82613233565b604082019050919050565b600060208201905081810360008301526132be81613282565b9050919050565b600081905092915050565b60006132db82612275565b6132e581856132c5565b93506132f5818560208601612291565b80840191505092915050565b600061330d82856132d0565b915061331982846132d0565b91508190509392505050565b600081519050919050565b600082825260208201905092915050565b600061334c82613325565b6133568185613330565b9350613366818560208601612291565b61336f816122bb565b840191505092915050565b600060808201905061338f6000830187612579565b61339c6020830186612579565b6133a96040830185612663565b81810360608301526133bb8184613341565b905095945050505050565b6000815190506133d5816121e6565b92915050565b6000602082840312156133f1576133f06121b0565b5b60006133ff848285016133c6565b91505092915050565b7f4552433732313a206d696e7420746f20746865207a65726f2061646472657373600082015250565b600061343e602083612280565b915061344982613408565b602082019050919050565b6000602082019050818103600083015261346d81613431565b9050919050565b7f4552433732313a20746f6b656e20616c7265616479206d696e74656400000000600082015250565b60006134aa601c83612280565b91506134b582613474565b602082019050919050565b600060208201905081810360008301526134d98161349d565b9050919050565b7f4e487b7100000000000000000000000000000000000000000000000000000000600052601260045260246000fdfea26469706673582212200839df441718efe203b665261e1d8dbef4fbf29433d00d8b890f3d37134e4b4764736f6c63430008110033",
  "immutableReferences": {},
  "source": "// Try using this as URI ipfs://bafkreic6ov4qo4ucd4g4uuyve4h72nc4y2lg7ugtq3n3vxnfp3lojvtmdu\r\n\r\n// SPDX-License-Identifier: MIT\r\npragma solidity ^0.8.17;\r\n\r\nimport \"@openzeppelin/contracts/token/ERC721/ERC721.sol\";\r\nimport \"@openzeppelin/contracts/token/ERC721/extensions/ERC721URIStorage.sol\";\r\nimport \"@openzeppelin/contracts/access/Ownable.sol\";\r\nimport \"@openzeppelin/contracts/utils/Counters.sol\";\r\n\r\ncontract Certicryp is ERC721, ERC721URIStorage, Ownable {\r\n    using Counters for Counters.Counter;\r\n    Counters.Counter private _tokenIdCounter;\r\n    event Attest(address indexed to, uint256 indexed tokenId);\r\n    event Revoke(address indexed to, uint256 indexed tokenId);\r\n    mapping(address => bool) public approvedUniversities;\r\n    event UniversityApproved(address university);\r\n    event UniversityRevoked(address university);\r\n    modifier onlyUniversity() {\r\n        require(\r\n            approvedUniversities[msg.sender],\r\n            \"Only approved universities can perform this action\"\r\n        );\r\n        _;\r\n    }\r\n\r\n    function supportsInterface(\r\n        bytes4 interfaceId\r\n    )\r\n        public\r\n        view\r\n        virtual\r\n        override(ERC721, ERC721URIStorage)\r\n        returns (bool)\r\n    {\r\n        return super.supportsInterface(interfaceId);\r\n    }\r\n\r\n    function approveUniversity(address university) external onlyOwner {\r\n        approvedUniversities[university] = true;\r\n        emit UniversityApproved(university);\r\n    }\r\n\r\n    function revokeUniversity(address university) external onlyOwner {\r\n        approvedUniversities[university] = false;\r\n        emit UniversityRevoked(university);\r\n    }\r\n\r\n    constructor() ERC721(\"Certicryp\", \"CRT\") {}\r\n\r\n    function mintCertificate(\r\n        address to,\r\n        string memory metadata\r\n    ) public onlyUniversity {\r\n        uint256 tokenId = _tokenIdCounter.current();\r\n        _tokenIdCounter.increment();\r\n        _safeMint(to, tokenId);\r\n        _setTokenURI(tokenId, metadata);\r\n    }\r\n\r\n    function burn(uint256 tokenId) external {\r\n        require(\r\n            ownerOf(tokenId) == msg.sender,\r\n            \"Only owner of the token can burn it\"\r\n        );\r\n        _burn(tokenId);\r\n    }\r\n\r\n    function revoke(uint256 tokenId) external onlyOwner {\r\n        _burn(tokenId);\r\n    }\r\n\r\n    function _beforeTokenTransfer(\r\n        address from,\r\n        address to,\r\n        uint256\r\n    ) internal pure {\r\n        require(\r\n            from == address(0) || to == address(0),\r\n            \"Not allowed to transfer token\"\r\n        );\r\n    }\r\n\r\n    function _afterTokenTransfer(\r\n        address from,\r\n        address to,\r\n        uint256 tokenId\r\n    ) internal {\r\n        if (from == address(0)) {\r\n            emit Attest(to, tokenId);\r\n        } else if (to == address(0)) {\r\n            emit Revoke(to, tokenId);\r\n        }\r\n    }\r\n\r\n    function _burn(\r\n        uint256 tokenId\r\n    ) internal override(ERC721, ERC721URIStorage) {\r\n        super._burn(tokenId);\r\n    }\r\n\r\n    function tokenURI(\r\n        uint256 tokenId\r\n    ) public view override(ERC721, ERC721URIStorage) returns (string memory) {\r\n        return super.tokenURI(tokenId);\r\n    }\r\n}\r\n",
  "sourcePath": "C:\\Users\\ajsty\\OneDrive\\Desktop\\VS_Code\\Certicryp\\contracts\\contracts\\Certicryp.sol",
  "compiler": {
    "name": "solc",
    "version": "0.8.17+commit.8df45f5f.Emscripten.clang"
  },
  "schemaVersion": "3.4.11",
  "updatedAt": "2023-05-29T12:18:47.883Z",
  "devdoc": {
    "kind": "dev",
    "methods": {
      "approve(address,uint256)": {
        "details": "See {IERC721-approve}."
      },
      "balanceOf(address)": {
        "details": "See {IERC721-balanceOf}."
      },
      "getApproved(uint256)": {
        "details": "See {IERC721-getApproved}."
      },
      "isApprovedForAll(address,address)": {
        "details": "See {IERC721-isApprovedForAll}."
      },
      "name()": {
        "details": "See {IERC721Metadata-name}."
      },
      "owner()": {
        "details": "Returns the address of the current owner."
      },
      "ownerOf(uint256)": {
        "details": "See {IERC721-ownerOf}."
      },
      "renounceOwnership()": {
        "details": "Leaves the contract without owner. It will not be possible to call `onlyOwner` functions. Can only be called by the current owner. NOTE: Renouncing ownership will leave the contract without an owner, thereby disabling any functionality that is only available to the owner."
      },
      "safeTransferFrom(address,address,uint256)": {
        "details": "See {IERC721-safeTransferFrom}."
      },
      "safeTransferFrom(address,address,uint256,bytes)": {
        "details": "See {IERC721-safeTransferFrom}."
      },
      "setApprovalForAll(address,bool)": {
        "details": "See {IERC721-setApprovalForAll}."
      },
      "symbol()": {
        "details": "See {IERC721Metadata-symbol}."
      },
      "transferFrom(address,address,uint256)": {
        "details": "See {IERC721-transferFrom}."
      },
      "transferOwnership(address)": {
        "details": "Transfers ownership of the contract to a new account (`newOwner`). Can only be called by the current owner."
      }
    },
    "version": 1
  },
  "userdoc": {
    "kind": "user",
    "methods": {},
    "version": 1
  }
}