{
  "contractName": "CertificateNFT",
  "abi": [
    {
      "inputs": [],
      "stateMutability": "nonpayable",
      "type": "constructor"
    },
    {
      "anonymous": false,
      "inputs": [
        {
          "indexed": true,
          "internalType": "address",
          "name": "owner",
          "type": "address"
        },
        {
          "indexed": true,
          "internalType": "address",
          "name": "approved",
          "type": "address"
        },
        {
          "indexed": true,
          "internalType": "uint256",
          "name": "tokenId",
          "type": "uint256"
        }
      ],
      "name": "Approval",
      "type": "event"
    },
    {
      "anonymous": false,
      "inputs": [
        {
          "indexed": true,
          "internalType": "address",
          "name": "owner",
          "type": "address"
        },
        {
          "indexed": true,
          "internalType": "address",
          "name": "operator",
          "type": "address"
        },
        {
          "indexed": false,
          "internalType": "bool",
          "name": "approved",
          "type": "bool"
        }
      ],
      "name": "ApprovalForAll",
      "type": "event"
    },
    {
      "anonymous": false,
      "inputs": [
        {
          "indexed": false,
          "internalType": "uint256",
          "name": "tokenId",
          "type": "uint256"
        },
        {
          "indexed": true,
          "internalType": "address",
          "name": "owner",
          "type": "address"
        },
        {
          "indexed": false,
          "internalType": "string",
          "name": "name",
          "type": "string"
        },
        {
          "indexed": false,
          "internalType": "string",
          "name": "dateOfIssuance",
          "type": "string"
        },
        {
          "indexed": false,
          "internalType": "string",
          "name": "programOfStudy",
          "type": "string"
        }
      ],
      "name": "CertificateIssued",
      "type": "event"
    },
    {
      "anonymous": false,
      "inputs": [
        {
          "indexed": true,
          "internalType": "address",
          "name": "previousOwner",
          "type": "address"
        },
        {
          "indexed": true,
          "internalType": "address",
          "name": "newOwner",
          "type": "address"
        }
      ],
      "name": "OwnershipTransferred",
      "type": "event"
    },
    {
      "anonymous": false,
      "inputs": [
        {
          "indexed": true,
          "internalType": "address",
          "name": "from",
          "type": "address"
        },
        {
          "indexed": true,
          "internalType": "address",
          "name": "to",
          "type": "address"
        },
        {
          "indexed": true,
          "internalType": "uint256",
          "name": "tokenId",
          "type": "uint256"
        }
      ],
      "name": "Transfer",
      "type": "event"
    },
    {
      "anonymous": false,
      "inputs": [
        {
          "indexed": false,
          "internalType": "address",
          "name": "university",
          "type": "address"
        }
      ],
      "name": "UniversityApproved",
      "type": "event"
    },
    {
      "anonymous": false,
      "inputs": [
        {
          "indexed": false,
          "internalType": "address",
          "name": "university",
          "type": "address"
        }
      ],
      "name": "UniversityRevoked",
      "type": "event"
    },
    {
      "inputs": [
        {
          "internalType": "address",
          "name": "to",
          "type": "address"
        },
        {
          "internalType": "uint256",
          "name": "tokenId",
          "type": "uint256"
        }
      ],
      "name": "approve",
      "outputs": [],
      "stateMutability": "nonpayable",
      "type": "function"
    },
    {
      "inputs": [
        {
          "internalType": "address",
          "name": "",
          "type": "address"
        }
      ],
      "name": "approvedUniversities",
      "outputs": [
        {
          "internalType": "bool",
          "name": "",
          "type": "bool"
        }
      ],
      "stateMutability": "view",
      "type": "function",
      "constant": true
    },
    {
      "inputs": [
        {
          "internalType": "address",
          "name": "owner",
          "type": "address"
        }
      ],
      "name": "balanceOf",
      "outputs": [
        {
          "internalType": "uint256",
          "name": "",
          "type": "uint256"
        }
      ],
      "stateMutability": "view",
      "type": "function",
      "constant": true
    },
    {
      "inputs": [
        {
          "internalType": "uint256",
          "name": "",
          "type": "uint256"
        }
      ],
      "name": "certificates",
      "outputs": [
        {
          "internalType": "string",
          "name": "name",
          "type": "string"
        },
        {
          "internalType": "string",
          "name": "dateOfIssuance",
          "type": "string"
        },
        {
          "internalType": "string",
          "name": "programOfStudy",
          "type": "string"
        }
      ],
      "stateMutability": "view",
      "type": "function",
      "constant": true
    },
    {
      "inputs": [
        {
          "internalType": "uint256",
          "name": "tokenId",
          "type": "uint256"
        }
      ],
      "name": "getApproved",
      "outputs": [
        {
          "internalType": "address",
          "name": "",
          "type": "address"
        }
      ],
      "stateMutability": "view",
      "type": "function",
      "constant": true
    },
    {
      "inputs": [
        {
          "internalType": "address",
          "name": "owner",
          "type": "address"
        },
        {
          "internalType": "address",
          "name": "operator",
          "type": "address"
        }
      ],
      "name": "isApprovedForAll",
      "outputs": [
        {
          "internalType": "bool",
          "name": "",
          "type": "bool"
        }
      ],
      "stateMutability": "view",
      "type": "function",
      "constant": true
    },
    {
      "inputs": [],
      "name": "name",
      "outputs": [
        {
          "internalType": "string",
          "name": "",
          "type": "string"
        }
      ],
      "stateMutability": "view",
      "type": "function",
      "constant": true
    },
    {
      "inputs": [],
      "name": "owner",
      "outputs": [
        {
          "internalType": "address",
          "name": "",
          "type": "address"
        }
      ],
      "stateMutability": "view",
      "type": "function",
      "constant": true
    },
    {
      "inputs": [
        {
          "internalType": "uint256",
          "name": "tokenId",
          "type": "uint256"
        }
      ],
      "name": "ownerOf",
      "outputs": [
        {
          "internalType": "address",
          "name": "",
          "type": "address"
        }
      ],
      "stateMutability": "view",
      "type": "function",
      "constant": true
    },
    {
      "inputs": [],
      "name": "renounceOwnership",
      "outputs": [],
      "stateMutability": "nonpayable",
      "type": "function"
    },
    {
      "inputs": [
        {
          "internalType": "address",
          "name": "from",
          "type": "address"
        },
        {
          "internalType": "address",
          "name": "to",
          "type": "address"
        },
        {
          "internalType": "uint256",
          "name": "tokenId",
          "type": "uint256"
        }
      ],
      "name": "safeTransferFrom",
      "outputs": [],
      "stateMutability": "nonpayable",
      "type": "function"
    },
    {
      "inputs": [
        {
          "internalType": "address",
          "name": "from",
          "type": "address"
        },
        {
          "internalType": "address",
          "name": "to",
          "type": "address"
        },
        {
          "internalType": "uint256",
          "name": "tokenId",
          "type": "uint256"
        },
        {
          "internalType": "bytes",
          "name": "data",
          "type": "bytes"
        }
      ],
      "name": "safeTransferFrom",
      "outputs": [],
      "stateMutability": "nonpayable",
      "type": "function"
    },
    {
      "inputs": [
        {
          "internalType": "address",
          "name": "operator",
          "type": "address"
        },
        {
          "internalType": "bool",
          "name": "approved",
          "type": "bool"
        }
      ],
      "name": "setApprovalForAll",
      "outputs": [],
      "stateMutability": "nonpayable",
      "type": "function"
    },
    {
      "inputs": [
        {
          "internalType": "bytes4",
          "name": "interfaceId",
          "type": "bytes4"
        }
      ],
      "name": "supportsInterface",
      "outputs": [
        {
          "internalType": "bool",
          "name": "",
          "type": "bool"
        }
      ],
      "stateMutability": "view",
      "type": "function",
      "constant": true
    },
    {
      "inputs": [],
      "name": "symbol",
      "outputs": [
        {
          "internalType": "string",
          "name": "",
          "type": "string"
        }
      ],
      "stateMutability": "view",
      "type": "function",
      "constant": true
    },
    {
      "inputs": [
        {
          "internalType": "uint256",
          "name": "tokenId",
          "type": "uint256"
        }
      ],
      "name": "tokenURI",
      "outputs": [
        {
          "internalType": "string",
          "name": "",
          "type": "string"
        }
      ],
      "stateMutability": "view",
      "type": "function",
      "constant": true
    },
    {
      "inputs": [
        {
          "internalType": "address",
          "name": "from",
          "type": "address"
        },
        {
          "internalType": "address",
          "name": "to",
          "type": "address"
        },
        {
          "internalType": "uint256",
          "name": "tokenId",
          "type": "uint256"
        }
      ],
      "name": "transferFrom",
      "outputs": [],
      "stateMutability": "nonpayable",
      "type": "function"
    },
    {
      "inputs": [
        {
          "internalType": "address",
          "name": "newOwner",
          "type": "address"
        }
      ],
      "name": "transferOwnership",
      "outputs": [],
      "stateMutability": "nonpayable",
      "type": "function"
    },
    {
      "inputs": [],
      "name": "totalSupply",
      "outputs": [
        {
          "internalType": "uint256",
          "name": "",
          "type": "uint256"
        }
      ],
      "stateMutability": "view",
      "type": "function",
      "constant": true
    },
    {
      "inputs": [
        {
          "internalType": "address",
          "name": "owner",
          "type": "address"
        },
        {
          "internalType": "string",
          "name": "name",
          "type": "string"
        },
        {
          "internalType": "string",
          "name": "dateOfIssuance",
          "type": "string"
        },
        {
          "internalType": "string",
          "name": "programOfStudy",
          "type": "string"
        }
      ],
      "name": "mintCertificate",
      "outputs": [],
      "stateMutability": "nonpayable",
      "type": "function"
    },
    {
      "inputs": [
        {
          "internalType": "address",
          "name": "university",
          "type": "address"
        }
      ],
      "name": "approveUniversity",
      "outputs": [],
      "stateMutability": "nonpayable",
      "type": "function"
    },
    {
      "inputs": [
        {
          "internalType": "address",
          "name": "university",
          "type": "address"
        }
      ],
      "name": "revokeUniversity",
      "outputs": [],
      "stateMutability": "nonpayable",
      "type": "function"
    },
    {
      "inputs": [
        {
          "internalType": "address",
          "name": "from",
          "type": "address"
        },
        {
          "internalType": "address",
          "name": "to",
          "type": "address"
        },
        {
          "internalType": "uint256",
          "name": "tokenId",
          "type": "uint256"
        }
      ],
      "name": "transferCertificate",
      "outputs": [],
      "stateMutability": "nonpayable",
      "type": "function"
    }
  ],
  "bytecode": "0x60806040523480156200001157600080fd5b506040518060400160405280600e81526020017f43657274696669636174654e46540000000000000000000000000000000000008152506040518060400160405280600481526020017f434552540000000000000000000000000000000000000000000000000000000081525081600090816200008f919062000412565b508060019081620000a1919062000412565b505050620000c4620000b8620000ca60201b60201c565b620000d260201b60201c565b620004f9565b600033905090565b6000600660009054906101000a900473ffffffffffffffffffffffffffffffffffffffff16905081600660006101000a81548173ffffffffffffffffffffffffffffffffffffffff021916908373ffffffffffffffffffffffffffffffffffffffff1602179055508173ffffffffffffffffffffffffffffffffffffffff168173ffffffffffffffffffffffffffffffffffffffff167f8be0079c531659141344cd1fd0a4f28419497f9722a3daafe3b4186f6b6457e060405160405180910390a35050565b600081519050919050565b7f4e487b7100000000000000000000000000000000000000000000000000000000600052604160045260246000fd5b7f4e487b7100000000000000000000000000000000000000000000000000000000600052602260045260246000fd5b600060028204905060018216806200021a57607f821691505b60208210810362000230576200022f620001d2565b5b50919050565b60008190508160005260206000209050919050565b60006020601f8301049050919050565b600082821b905092915050565b6000600883026200029a7fffffffffffffffffffffffffffffffffffffffffffffffffffffffffffffffff826200025b565b620002a686836200025b565b95508019841693508086168417925050509392505050565b6000819050919050565b6000819050919050565b6000620002f3620002ed620002e784620002be565b620002c8565b620002be565b9050919050565b6000819050919050565b6200030f83620002d2565b620003276200031e82620002fa565b84845462000268565b825550505050565b600090565b6200033e6200032f565b6200034b81848462000304565b505050565b5b8181101562000373576200036760008262000334565b60018101905062000351565b5050565b601f821115620003c2576200038c8162000236565b62000397846200024b565b81016020851015620003a7578190505b620003bf620003b6856200024b565b83018262000350565b50505b505050565b600082821c905092915050565b6000620003e760001984600802620003c7565b1980831691505092915050565b6000620004028383620003d4565b9150826002028217905092915050565b6200041d8262000198565b67ffffffffffffffff811115620004395762000438620001a3565b5b62000445825462000201565b6200045282828562000377565b600060209050601f8311600181146200048a576000841562000475578287015190505b620004818582620003f4565b865550620004f1565b601f1984166200049a8662000236565b60005b82811015620004c4578489015182556001820191506020850194506020810190506200049d565b86831015620004e45784890151620004e0601f891682620003d4565b8355505b6001600288020188555050505b505050505050565b6134ed80620005096000396000f3fe608060405234801561001057600080fd5b506004361061014d5760003560e01c806370a08231116100c3578063b88d4fde1161007c578063b88d4fde1461039e578063c87b56dd146103ba578063e4ee8755146103ea578063e985e9c514610406578063f2fde38b14610436578063fe8807f3146104525761014d565b806370a08231146102f0578063715018a6146103205780638da5cb5b1461032a578063929c01fd1461034857806395d89b4114610364578063a22cb465146103825761014d565b806318160ddd1161011557806318160ddd1461021c57806323b872dd1461023a57806342842e0e14610256578063545647f7146102725780636352211e1461028e578063663b3e22146102be5761014d565b806301ffc9a71461015257806306fdde0314610182578063081812fc146101a0578063095ea7b3146101d05780630cbaf2e9146101ec575b600080fd5b61016c600480360381019061016791906120d0565b61046e565b6040516101799190612118565b60405180910390f35b61018a610550565b60405161019791906121c3565b60405180910390f35b6101ba60048036038101906101b5919061221b565b6105e2565b6040516101c79190612289565b60405180910390f35b6101ea60048036038101906101e591906122d0565b610628565b005b61020660048036038101906102019190612310565b61073f565b6040516102139190612118565b60405180910390f35b61022461075f565b604051610231919061234c565b60405180910390f35b610254600480360381019061024f9190612367565b610769565b005b610270600480360381019061026b9190612367565b6107c9565b005b61028c60048036038101906102879190612310565b6107e9565b005b6102a860048036038101906102a3919061221b565b610883565b6040516102b59190612289565b60405180910390f35b6102d860048036038101906102d3919061221b565b610909565b6040516102e7939291906123ba565b60405180910390f35b61030a60048036038101906103059190612310565b610acb565b604051610317919061234c565b60405180910390f35b610328610b82565b005b610332610b96565b60405161033f9190612289565b60405180910390f35b610362600480360381019061035d919061253b565b610bc0565b005b61036c610d4e565b60405161037991906121c3565b60405180910390f35b61039c60048036038101906103979190612622565b610de0565b005b6103b860048036038101906103b39190612703565b610df6565b005b6103d460048036038101906103cf919061221b565b610e58565b6040516103e191906121c3565b60405180910390f35b61040460048036038101906103ff9190612310565b610ec0565b005b610420600480360381019061041b9190612786565b610f5a565b60405161042d9190612118565b60405180910390f35b610450600480360381019061044b9190612310565b610fee565b005b61046c60048036038101906104679190612367565b611071565b005b60007f80ac58cd000000000000000000000000000000000000000000000000000000007bffffffffffffffffffffffffffffffffffffffffffffffffffffffff1916827bffffffffffffffffffffffffffffffffffffffffffffffffffffffff1916148061053957507f5b5e139f000000000000000000000000000000000000000000000000000000007bffffffffffffffffffffffffffffffffffffffffffffffffffffffff1916827bffffffffffffffffffffffffffffffffffffffffffffffffffffffff1916145b80610549575061054882611152565b5b9050919050565b60606000805461055f906127f5565b80601f016020809104026020016040519081016040528092919081815260200182805461058b906127f5565b80156105d85780601f106105ad576101008083540402835291602001916105d8565b820191906000526020600020905b8154815290600101906020018083116105bb57829003601f168201915b5050505050905090565b60006105ed826111bc565b6004600083815260200190815260200160002060009054906101000a900473ffffffffffffffffffffffffffffffffffffffff169050919050565b600061063382610883565b90508073ffffffffffffffffffffffffffffffffffffffff168373ffffffffffffffffffffffffffffffffffffffff16036106a3576040517f08c379a000000000000000000000000000000000000000000000000000000000815260040161069a90612898565b60405180910390fd5b8073ffffffffffffffffffffffffffffffffffffffff166106c2611207565b73ffffffffffffffffffffffffffffffffffffffff1614806106f157506106f0816106eb611207565b610f5a565b5b610730576040517f08c379a00000000000000000000000000000000000000000000000000000000081526004016107279061292a565b60405180910390fd5b61073a838361120f565b505050565b60096020528060005260406000206000915054906101000a900460ff1681565b6000600754905090565b61077a610774611207565b826112c8565b6107b9576040517f08c379a00000000000000000000000000000000000000000000000000000000081526004016107b0906129bc565b60405180910390fd5b6107c483838361135d565b505050565b6107e483838360405180602001604052806000815250610df6565b505050565b6107f1611656565b6001600960008373ffffffffffffffffffffffffffffffffffffffff1673ffffffffffffffffffffffffffffffffffffffff16815260200190815260200160002060006101000a81548160ff0219169083151502179055507fe095916d939a032e249fe8d5f535f7144d0835b0edaa9a57aa245c1aa961468e816040516108789190612289565b60405180910390a150565b60008061088f836116d4565b9050600073ffffffffffffffffffffffffffffffffffffffff168173ffffffffffffffffffffffffffffffffffffffff1603610900576040517f08c379a00000000000000000000000000000000000000000000000000000000081526004016108f790612a28565b60405180910390fd5b80915050919050565b600860205280600052604060002060009150905080600001805461092c906127f5565b80601f0160208091040260200160405190810160405280929190818152602001828054610958906127f5565b80156109a55780601f1061097a576101008083540402835291602001916109a5565b820191906000526020600020905b81548152906001019060200180831161098857829003601f168201915b5050505050908060010180546109ba906127f5565b80601f01602080910402602001604051908101604052809291908181526020018280546109e6906127f5565b8015610a335780601f10610a0857610100808354040283529160200191610a33565b820191906000526020600020905b815481529060010190602001808311610a1657829003601f168201915b505050505090806002018054610a48906127f5565b80601f0160208091040260200160405190810160405280929190818152602001828054610a74906127f5565b8015610ac15780601f10610a9657610100808354040283529160200191610ac1565b820191906000526020600020905b815481529060010190602001808311610aa457829003601f168201915b5050505050905083565b60008073ffffffffffffffffffffffffffffffffffffffff168273ffffffffffffffffffffffffffffffffffffffff1603610b3b576040517f08c379a0000000000000000000000000000000000000000000000000000000008152600401610b3290612aba565b60405180910390fd5b600360008373ffffffffffffffffffffffffffffffffffffffff1673ffffffffffffffffffffffffffffffffffffffff168152602001908152602001600020549050919050565b610b8a611656565b610b946000611711565b565b6000600660009054906101000a900473ffffffffffffffffffffffffffffffffffffffff16905090565b600960003373ffffffffffffffffffffffffffffffffffffffff1673ffffffffffffffffffffffffffffffffffffffff16815260200190815260200160002060009054906101000a900460ff16610c4c576040517f08c379a0000000000000000000000000000000000000000000000000000000008152600401610c4390612b4c565b60405180910390fd5b6000600754905060076000815480929190610c6690612b9b565b9190505550610c7585826117d7565b604051806060016040528085815260200184815260200183815250600860008381526020019081526020016000206000820151816000019081610cb89190612d8f565b506020820151816001019081610cce9190612d8f565b506040820151816002019081610ce49190612d8f565b50905050610cf38533836107c9565b8473ffffffffffffffffffffffffffffffffffffffff167f5e6f8d0e0c69367b877ce8a6320e7e57e120bebb1ccf1b4b5a7443ee2e0559b482868686604051610d3f9493929190612e61565b60405180910390a25050505050565b606060018054610d5d906127f5565b80601f0160208091040260200160405190810160405280929190818152602001828054610d89906127f5565b8015610dd65780601f10610dab57610100808354040283529160200191610dd6565b820191906000526020600020905b815481529060010190602001808311610db957829003601f168201915b5050505050905090565b610df2610deb611207565b83836117f5565b5050565b610e07610e01611207565b836112c8565b610e46576040517f08c379a0000000000000000000000000000000000000000000000000000000008152600401610e3d906129bc565b60405180910390fd5b610e5284848484611961565b50505050565b6060610e63826111bc565b6000610e6d6119bd565b90506000815111610e8d5760405180602001604052806000815250610eb8565b80610e97846119d4565b604051602001610ea8929190612ef7565b6040516020818303038152906040525b915050919050565b610ec8611656565b6000600960008373ffffffffffffffffffffffffffffffffffffffff1673ffffffffffffffffffffffffffffffffffffffff16815260200190815260200160002060006101000a81548160ff0219169083151502179055507f13ac9aa2c7e4f68cb10b8d7ba445383b32e9d48311cba0e322f9f932ad8872b981604051610f4f9190612289565b60405180910390a150565b6000600560008473ffffffffffffffffffffffffffffffffffffffff1673ffffffffffffffffffffffffffffffffffffffff16815260200190815260200160002060008373ffffffffffffffffffffffffffffffffffffffff1673ffffffffffffffffffffffffffffffffffffffff16815260200190815260200160002060009054906101000a900460ff16905092915050565b610ff6611656565b600073ffffffffffffffffffffffffffffffffffffffff168173ffffffffffffffffffffffffffffffffffffffff1603611065576040517f08c379a000000000000000000000000000000000000000000000000000000000815260040161105c90612f8d565b60405180910390fd5b61106e81611711565b50565b8273ffffffffffffffffffffffffffffffffffffffff1661109182610883565b73ffffffffffffffffffffffffffffffffffffffff16146110e7576040517f08c379a00000000000000000000000000000000000000000000000000000000081526004016110de9061301f565b60405180910390fd5b6110f28383836107c9565b808273ffffffffffffffffffffffffffffffffffffffff168473ffffffffffffffffffffffffffffffffffffffff167fddf252ad1be2c89b69c2b068fc378daa952ba7f163c4a11628f55a4df523b3ef60405160405180910390a4505050565b60007f01ffc9a7000000000000000000000000000000000000000000000000000000007bffffffffffffffffffffffffffffffffffffffffffffffffffffffff1916827bffffffffffffffffffffffffffffffffffffffffffffffffffffffff1916149050919050565b6111c581611aa2565b611204576040517f08c379a00000000000000000000000000000000000000000000000000000000081526004016111fb90612a28565b60405180910390fd5b50565b600033905090565b816004600083815260200190815260200160002060006101000a81548173ffffffffffffffffffffffffffffffffffffffff021916908373ffffffffffffffffffffffffffffffffffffffff160217905550808273ffffffffffffffffffffffffffffffffffffffff1661128283610883565b73ffffffffffffffffffffffffffffffffffffffff167f8c5be1e5ebec7d5bd14f71427d1e84f3dd0314c0f7b2291e5b200ac8c7c3b92560405160405180910390a45050565b6000806112d483610883565b90508073ffffffffffffffffffffffffffffffffffffffff168473ffffffffffffffffffffffffffffffffffffffff16148061131657506113158185610f5a565b5b8061135457508373ffffffffffffffffffffffffffffffffffffffff1661133c846105e2565b73ffffffffffffffffffffffffffffffffffffffff16145b91505092915050565b8273ffffffffffffffffffffffffffffffffffffffff1661137d82610883565b73ffffffffffffffffffffffffffffffffffffffff16146113d3576040517f08c379a00000000000000000000000000000000000000000000000000000000081526004016113ca906130b1565b60405180910390fd5b600073ffffffffffffffffffffffffffffffffffffffff168273ffffffffffffffffffffffffffffffffffffffff1603611442576040517f08c379a000000000000000000000000000000000000000000000000000000000815260040161143990613143565b60405180910390fd5b61144f8383836001611ae3565b8273ffffffffffffffffffffffffffffffffffffffff1661146f82610883565b73ffffffffffffffffffffffffffffffffffffffff16146114c5576040517f08c379a00000000000000000000000000000000000000000000000000000000081526004016114bc906130b1565b60405180910390fd5b6004600082815260200190815260200160002060006101000a81549073ffffffffffffffffffffffffffffffffffffffff02191690556001600360008573ffffffffffffffffffffffffffffffffffffffff1673ffffffffffffffffffffffffffffffffffffffff168152602001908152602001600020600082825403925050819055506001600360008473ffffffffffffffffffffffffffffffffffffffff1673ffffffffffffffffffffffffffffffffffffffff16815260200190815260200160002060008282540192505081905550816002600083815260200190815260200160002060006101000a81548173ffffffffffffffffffffffffffffffffffffffff021916908373ffffffffffffffffffffffffffffffffffffffff160217905550808273ffffffffffffffffffffffffffffffffffffffff168473ffffffffffffffffffffffffffffffffffffffff167fddf252ad1be2c89b69c2b068fc378daa952ba7f163c4a11628f55a4df523b3ef60405160405180910390a46116518383836001611ae9565b505050565b61165e611207565b73ffffffffffffffffffffffffffffffffffffffff1661167c610b96565b73ffffffffffffffffffffffffffffffffffffffff16146116d2576040517f08c379a00000000000000000000000000000000000000000000000000000000081526004016116c9906131af565b60405180910390fd5b565b60006002600083815260200190815260200160002060009054906101000a900473ffffffffffffffffffffffffffffffffffffffff169050919050565b6000600660009054906101000a900473ffffffffffffffffffffffffffffffffffffffff16905081600660006101000a81548173ffffffffffffffffffffffffffffffffffffffff021916908373ffffffffffffffffffffffffffffffffffffffff1602179055508173ffffffffffffffffffffffffffffffffffffffff168173ffffffffffffffffffffffffffffffffffffffff167f8be0079c531659141344cd1fd0a4f28419497f9722a3daafe3b4186f6b6457e060405160405180910390a35050565b6117f1828260405180602001604052806000815250611aef565b5050565b8173ffffffffffffffffffffffffffffffffffffffff168373ffffffffffffffffffffffffffffffffffffffff1603611863576040517f08c379a000000000000000000000000000000000000000000000000000000000815260040161185a9061321b565b60405180910390fd5b80600560008573ffffffffffffffffffffffffffffffffffffffff1673ffffffffffffffffffffffffffffffffffffffff16815260200190815260200160002060008473ffffffffffffffffffffffffffffffffffffffff1673ffffffffffffffffffffffffffffffffffffffff16815260200190815260200160002060006101000a81548160ff0219169083151502179055508173ffffffffffffffffffffffffffffffffffffffff168373ffffffffffffffffffffffffffffffffffffffff167f17307eab39ab6107e8899845ad3d59bd9653f200f220920489ca2b5937696c31836040516119549190612118565b60405180910390a3505050565b61196c84848461135d565b61197884848484611b4a565b6119b7576040517f08c379a00000000000000000000000000000000000000000000000000000000081526004016119ae906132ad565b60405180910390fd5b50505050565b606060405180602001604052806000815250905090565b6060600060016119e384611cd1565b01905060008167ffffffffffffffff811115611a0257611a01612410565b5b6040519080825280601f01601f191660200182016040528015611a345781602001600182028036833780820191505090505b509050600082602001820190505b600115611a97578080600190039150507f3031323334353637383961626364656600000000000000000000000000000000600a86061a8153600a8581611a8b57611a8a6132cd565b5b04945060008503611a42575b819350505050919050565b60008073ffffffffffffffffffffffffffffffffffffffff16611ac4836116d4565b73ffffffffffffffffffffffffffffffffffffffff1614159050919050565b50505050565b50505050565b611af98383611e24565b611b066000848484611b4a565b611b45576040517f08c379a0000000000000000000000000000000000000000000000000000000008152600401611b3c906132ad565b60405180910390fd5b505050565b6000611b6b8473ffffffffffffffffffffffffffffffffffffffff16612041565b15611cc4578373ffffffffffffffffffffffffffffffffffffffff1663150b7a02611b94611207565b8786866040518563ffffffff1660e01b8152600401611bb69493929190613351565b6020604051808303816000875af1925050508015611bf257506040513d601f19601f82011682018060405250810190611bef91906133b2565b60015b611c74573d8060008114611c22576040519150601f19603f3d011682016040523d82523d6000602084013e611c27565b606091505b506000815103611c6c576040517f08c379a0000000000000000000000000000000000000000000000000000000008152600401611c63906132ad565b60405180910390fd5b805181602001fd5b63150b7a0260e01b7bffffffffffffffffffffffffffffffffffffffffffffffffffffffff1916817bffffffffffffffffffffffffffffffffffffffffffffffffffffffff191614915050611cc9565b600190505b949350505050565b600080600090507a184f03e93ff9f4daa797ed6e38ed64bf6a1f0100000000000000008310611d2f577a184f03e93ff9f4daa797ed6e38ed64bf6a1f0100000000000000008381611d2557611d246132cd565b5b0492506040810190505b6d04ee2d6d415b85acef81000000008310611d6c576d04ee2d6d415b85acef81000000008381611d6257611d616132cd565b5b0492506020810190505b662386f26fc100008310611d9b57662386f26fc100008381611d9157611d906132cd565b5b0492506010810190505b6305f5e1008310611dc4576305f5e1008381611dba57611db96132cd565b5b0492506008810190505b6127108310611de9576127108381611ddf57611dde6132cd565b5b0492506004810190505b60648310611e0c5760648381611e0257611e016132cd565b5b0492506002810190505b600a8310611e1b576001810190505b80915050919050565b600073ffffffffffffffffffffffffffffffffffffffff168273ffffffffffffffffffffffffffffffffffffffff1603611e93576040517f08c379a0000000000000000000000000000000000000000000000000000000008152600401611e8a9061342b565b60405180910390fd5b611e9c81611aa2565b15611edc576040517f08c379a0000000000000000000000000000000000000000000000000000000008152600401611ed390613497565b60405180910390fd5b611eea600083836001611ae3565b611ef381611aa2565b15611f33576040517f08c379a0000000000000000000000000000000000000000000000000000000008152600401611f2a90613497565b60405180910390fd5b6001600360008473ffffffffffffffffffffffffffffffffffffffff1673ffffffffffffffffffffffffffffffffffffffff16815260200190815260200160002060008282540192505081905550816002600083815260200190815260200160002060006101000a81548173ffffffffffffffffffffffffffffffffffffffff021916908373ffffffffffffffffffffffffffffffffffffffff160217905550808273ffffffffffffffffffffffffffffffffffffffff16600073ffffffffffffffffffffffffffffffffffffffff167fddf252ad1be2c89b69c2b068fc378daa952ba7f163c4a11628f55a4df523b3ef60405160405180910390a461203d600083836001611ae9565b5050565b6000808273ffffffffffffffffffffffffffffffffffffffff163b119050919050565b6000604051905090565b600080fd5b600080fd5b60007fffffffff0000000000000000000000000000000000000000000000000000000082169050919050565b6120ad81612078565b81146120b857600080fd5b50565b6000813590506120ca816120a4565b92915050565b6000602082840312156120e6576120e561206e565b5b60006120f4848285016120bb565b91505092915050565b60008115159050919050565b612112816120fd565b82525050565b600060208201905061212d6000830184612109565b92915050565b600081519050919050565b600082825260208201905092915050565b60005b8381101561216d578082015181840152602081019050612152565b60008484015250505050565b6000601f19601f8301169050919050565b600061219582612133565b61219f818561213e565b93506121af81856020860161214f565b6121b881612179565b840191505092915050565b600060208201905081810360008301526121dd818461218a565b905092915050565b6000819050919050565b6121f8816121e5565b811461220357600080fd5b50565b600081359050612215816121ef565b92915050565b6000602082840312156122315761223061206e565b5b600061223f84828501612206565b91505092915050565b600073ffffffffffffffffffffffffffffffffffffffff82169050919050565b600061227382612248565b9050919050565b61228381612268565b82525050565b600060208201905061229e600083018461227a565b92915050565b6122ad81612268565b81146122b857600080fd5b50565b6000813590506122ca816122a4565b92915050565b600080604083850312156122e7576122e661206e565b5b60006122f5858286016122bb565b925050602061230685828601612206565b9150509250929050565b6000602082840312156123265761232561206e565b5b6000612334848285016122bb565b91505092915050565b612346816121e5565b82525050565b6000602082019050612361600083018461233d565b92915050565b6000806000606084860312156123805761237f61206e565b5b600061238e868287016122bb565b935050602061239f868287016122bb565b92505060406123b086828701612206565b9150509250925092565b600060608201905081810360008301526123d4818661218a565b905081810360208301526123e8818561218a565b905081810360408301526123fc818461218a565b9050949350505050565b600080fd5b600080fd5b7f4e487b7100000000000000000000000000000000000000000000000000000000600052604160045260246000fd5b61244882612179565b810181811067ffffffffffffffff8211171561246757612466612410565b5b80604052505050565b600061247a612064565b9050612486828261243f565b919050565b600067ffffffffffffffff8211156124a6576124a5612410565b5b6124af82612179565b9050602081019050919050565b82818337600083830152505050565b60006124de6124d98461248b565b612470565b9050828152602081018484840111156124fa576124f961240b565b5b6125058482856124bc565b509392505050565b600082601f83011261252257612521612406565b5b81356125328482602086016124cb565b91505092915050565b600080600080608085870312156125555761255461206e565b5b6000612563878288016122bb565b945050602085013567ffffffffffffffff81111561258457612583612073565b5b6125908782880161250d565b935050604085013567ffffffffffffffff8111156125b1576125b0612073565b5b6125bd8782880161250d565b925050606085013567ffffffffffffffff8111156125de576125dd612073565b5b6125ea8782880161250d565b91505092959194509250565b6125ff816120fd565b811461260a57600080fd5b50565b60008135905061261c816125f6565b92915050565b600080604083850312156126395761263861206e565b5b6000612647858286016122bb565b92505060206126588582860161260d565b9150509250929050565b600067ffffffffffffffff82111561267d5761267c612410565b5b61268682612179565b9050602081019050919050565b60006126a66126a184612662565b612470565b9050828152602081018484840111156126c2576126c161240b565b5b6126cd8482856124bc565b509392505050565b600082601f8301126126ea576126e9612406565b5b81356126fa848260208601612693565b91505092915050565b6000806000806080858703121561271d5761271c61206e565b5b600061272b878288016122bb565b945050602061273c878288016122bb565b935050604061274d87828801612206565b925050606085013567ffffffffffffffff81111561276e5761276d612073565b5b61277a878288016126d5565b91505092959194509250565b6000806040838503121561279d5761279c61206e565b5b60006127ab858286016122bb565b92505060206127bc858286016122bb565b9150509250929050565b7f4e487b7100000000000000000000000000000000000000000000000000000000600052602260045260246000fd5b6000600282049050600182168061280d57607f821691505b6020821081036128205761281f6127c6565b5b50919050565b7f4552433732313a20617070726f76616c20746f2063757272656e74206f776e6560008201527f7200000000000000000000000000000000000000000000000000000000000000602082015250565b600061288260218361213e565b915061288d82612826565b604082019050919050565b600060208201905081810360008301526128b181612875565b9050919050565b7f4552433732313a20617070726f76652063616c6c6572206973206e6f7420746f60008201527f6b656e206f776e6572206f7220617070726f76656420666f7220616c6c000000602082015250565b6000612914603d8361213e565b915061291f826128b8565b604082019050919050565b6000602082019050818103600083015261294381612907565b9050919050565b7f4552433732313a2063616c6c6572206973206e6f7420746f6b656e206f776e6560008201527f72206f7220617070726f76656400000000000000000000000000000000000000602082015250565b60006129a6602d8361213e565b91506129b18261294a565b604082019050919050565b600060208201905081810360008301526129d581612999565b9050919050565b7f4552433732313a20696e76616c696420746f6b656e2049440000000000000000600082015250565b6000612a1260188361213e565b9150612a1d826129dc565b602082019050919050565b60006020820190508181036000830152612a4181612a05565b9050919050565b7f4552433732313a2061646472657373207a65726f206973206e6f74206120766160008201527f6c6964206f776e65720000000000000000000000000000000000000000000000602082015250565b6000612aa460298361213e565b9150612aaf82612a48565b604082019050919050565b60006020820190508181036000830152612ad381612a97565b9050919050565b7f4f6e6c7920617070726f76656420756e697665727369746965732063616e207060008201527f6572666f726d207468697320616374696f6e0000000000000000000000000000602082015250565b6000612b3660328361213e565b9150612b4182612ada565b604082019050919050565b60006020820190508181036000830152612b6581612b29565b9050919050565b7f4e487b7100000000000000000000000000000000000000000000000000000000600052601160045260246000fd5b6000612ba6826121e5565b91507fffffffffffffffffffffffffffffffffffffffffffffffffffffffffffffffff8203612bd857612bd7612b6c565b5b600182019050919050565b60008190508160005260206000209050919050565b60006020601f8301049050919050565b600082821b905092915050565b600060088302612c457fffffffffffffffffffffffffffffffffffffffffffffffffffffffffffffffff82612c08565b612c4f8683612c08565b95508019841693508086168417925050509392505050565b6000819050919050565b6000612c8c612c87612c82846121e5565b612c67565b6121e5565b9050919050565b6000819050919050565b612ca683612c71565b612cba612cb282612c93565b848454612c15565b825550505050565b600090565b612ccf612cc2565b612cda818484612c9d565b505050565b5b81811015612cfe57612cf3600082612cc7565b600181019050612ce0565b5050565b601f821115612d4357612d1481612be3565b612d1d84612bf8565b81016020851015612d2c578190505b612d40612d3885612bf8565b830182612cdf565b50505b505050565b600082821c905092915050565b6000612d6660001984600802612d48565b1980831691505092915050565b6000612d7f8383612d55565b9150826002028217905092915050565b612d9882612133565b67ffffffffffffffff811115612db157612db0612410565b5b612dbb82546127f5565b612dc6828285612d02565b600060209050601f831160018114612df95760008415612de7578287015190505b612df18582612d73565b865550612e59565b601f198416612e0786612be3565b60005b82811015612e2f57848901518255600182019150602085019450602081019050612e0a565b86831015612e4c5784890151612e48601f891682612d55565b8355505b6001600288020188555050505b505050505050565b6000608082019050612e76600083018761233d565b8181036020830152612e88818661218a565b90508181036040830152612e9c818561218a565b90508181036060830152612eb0818461218a565b905095945050505050565b600081905092915050565b6000612ed182612133565b612edb8185612ebb565b9350612eeb81856020860161214f565b80840191505092915050565b6000612f038285612ec6565b9150612f0f8284612ec6565b91508190509392505050565b7f4f776e61626c653a206e6577206f776e657220697320746865207a65726f206160008201527f6464726573730000000000000000000000000000000000000000000000000000602082015250565b6000612f7760268361213e565b9150612f8282612f1b565b604082019050919050565b60006020820190508181036000830152612fa681612f6a565b9050919050565b7f596f7520617265206e6f7420746865206f776e6572206f66207468697320636560008201527f7274696669636174650000000000000000000000000000000000000000000000602082015250565b600061300960298361213e565b915061301482612fad565b604082019050919050565b6000602082019050818103600083015261303881612ffc565b9050919050565b7f4552433732313a207472616e736665722066726f6d20696e636f72726563742060008201527f6f776e6572000000000000000000000000000000000000000000000000000000602082015250565b600061309b60258361213e565b91506130a68261303f565b604082019050919050565b600060208201905081810360008301526130ca8161308e565b9050919050565b7f4552433732313a207472616e7366657220746f20746865207a65726f2061646460008201527f7265737300000000000000000000000000000000000000000000000000000000602082015250565b600061312d60248361213e565b9150613138826130d1565b604082019050919050565b6000602082019050818103600083015261315c81613120565b9050919050565b7f4f776e61626c653a2063616c6c6572206973206e6f7420746865206f776e6572600082015250565b600061319960208361213e565b91506131a482613163565b602082019050919050565b600060208201905081810360008301526131c88161318c565b9050919050565b7f4552433732313a20617070726f766520746f2063616c6c657200000000000000600082015250565b600061320560198361213e565b9150613210826131cf565b602082019050919050565b60006020820190508181036000830152613234816131f8565b9050919050565b7f4552433732313a207472616e7366657220746f206e6f6e20455243373231526560008201527f63656976657220696d706c656d656e7465720000000000000000000000000000602082015250565b600061329760328361213e565b91506132a28261323b565b604082019050919050565b600060208201905081810360008301526132c68161328a565b9050919050565b7f4e487b7100000000000000000000000000000000000000000000000000000000600052601260045260246000fd5b600081519050919050565b600082825260208201905092915050565b6000613323826132fc565b61332d8185613307565b935061333d81856020860161214f565b61334681612179565b840191505092915050565b6000608082019050613366600083018761227a565b613373602083018661227a565b613380604083018561233d565b81810360608301526133928184613318565b905095945050505050565b6000815190506133ac816120a4565b92915050565b6000602082840312156133c8576133c761206e565b5b60006133d68482850161339d565b91505092915050565b7f4552433732313a206d696e7420746f20746865207a65726f2061646472657373600082015250565b600061341560208361213e565b9150613420826133df565b602082019050919050565b6000602082019050818103600083015261344481613408565b9050919050565b7f4552433732313a20746f6b656e20616c7265616479206d696e74656400000000600082015250565b6000613481601c8361213e565b915061348c8261344b565b602082019050919050565b600060208201905081810360008301526134b081613474565b905091905056fea2646970667358221220c7d1c4824718783a11ca76cafa2bcfd0aad3a38232101f0c8a91b7e842ca8c6a64736f6c63430008110033",
  "immutableReferences": {},
  "source": "// SPDX-License-Identifier: MIT\r\npragma solidity ^0.8.0;\r\n\r\nimport \"@openzeppelin/contracts/token/ERC721/ERC721.sol\";\r\nimport \"@openzeppelin/contracts/access/Ownable.sol\";\r\n\r\ncontract CertificateNFT is ERC721, Ownable {\r\n    uint256 private _tokenIdCounter;\r\n\r\n    struct Certificate {\r\n        string name;\r\n        string dateOfIssuance;\r\n        string programOfStudy;\r\n    }\r\n\r\n    mapping(uint256 => Certificate) public certificates;\r\n    mapping(address => bool) public approvedUniversities;\r\n\r\n    event CertificateIssued(uint256 tokenId, address indexed owner, string name, string dateOfIssuance, string programOfStudy);\r\n    event UniversityApproved(address university);\r\n    event UniversityRevoked(address university);\r\n\r\n    constructor() ERC721(\"CertificateNFT\", \"CERT\") {}\r\n\r\n    function totalSupply() external view returns (uint256) {\r\n        return _tokenIdCounter;\r\n    }\r\n\r\n    modifier onlyUniversity() {\r\n        require(approvedUniversities[msg.sender], \"Only approved universities can perform this action\");\r\n        _;\r\n    }\r\n\r\n    function mintCertificate(address owner, string memory name, string memory dateOfIssuance, string memory programOfStudy) external onlyUniversity {\r\n        uint256 tokenId = _tokenIdCounter;\r\n        _tokenIdCounter++;\r\n\r\n        _safeMint(owner, tokenId);\r\n        certificates[tokenId] = Certificate(name, dateOfIssuance, programOfStudy);\r\n        safeTransferFrom(owner, msg.sender, tokenId);\r\n        emit CertificateIssued(tokenId, owner, name, dateOfIssuance, programOfStudy);\r\n    }\r\n\r\n    function approveUniversity(address university) external onlyOwner {\r\n        approvedUniversities[university] = true;\r\n        emit UniversityApproved(university);\r\n    }\r\n\r\n    function revokeUniversity(address university) external onlyOwner {\r\n        approvedUniversities[university] = false;\r\n        emit UniversityRevoked(university);\r\n    }\r\n    function transferCertificate(address from, address to, uint256 tokenId) external {\r\n    require(ownerOf(tokenId) == from, \"You are not the owner of this certificate\");\r\n\r\n    safeTransferFrom(from, to, tokenId);\r\n\r\n    emit Transfer(from, to, tokenId);\r\n}\r\n}\r\n",
  "sourcePath": "C:\\Users\\ajsty\\OneDrive\\Desktop\\VS_Code\\Certicryp\\contracts\\contracts\\CertificateNFT.sol",
  "compiler": {
    "name": "solc",
    "version": "0.8.17+commit.8df45f5f.Emscripten.clang"
  },
  "schemaVersion": "3.4.11",
  "updatedAt": "2023-05-19T18:23:01.223Z",
  "networkType": "ethereum",
  "devdoc": {
    "kind": "dev",
    "methods": {
      "approve(address,uint256)": {
        "details": "See {IERC721-approve}."
      },
      "balanceOf(address)": {
        "details": "See {IERC721-balanceOf}."
      },
      "getApproved(uint256)": {
        "details": "See {IERC721-getApproved}."
      },
      "isApprovedForAll(address,address)": {
        "details": "See {IERC721-isApprovedForAll}."
      },
      "name()": {
        "details": "See {IERC721Metadata-name}."
      },
      "owner()": {
        "details": "Returns the address of the current owner."
      },
      "ownerOf(uint256)": {
        "details": "See {IERC721-ownerOf}."
      },
      "renounceOwnership()": {
        "details": "Leaves the contract without owner. It will not be possible to call `onlyOwner` functions anymore. Can only be called by the current owner. NOTE: Renouncing ownership will leave the contract without an owner, thereby removing any functionality that is only available to the owner."
      },
      "safeTransferFrom(address,address,uint256)": {
        "details": "See {IERC721-safeTransferFrom}."
      },
      "safeTransferFrom(address,address,uint256,bytes)": {
        "details": "See {IERC721-safeTransferFrom}."
      },
      "setApprovalForAll(address,bool)": {
        "details": "See {IERC721-setApprovalForAll}."
      },
      "supportsInterface(bytes4)": {
        "details": "See {IERC165-supportsInterface}."
      },
      "symbol()": {
        "details": "See {IERC721Metadata-symbol}."
      },
      "tokenURI(uint256)": {
        "details": "See {IERC721Metadata-tokenURI}."
      },
      "transferFrom(address,address,uint256)": {
        "details": "See {IERC721-transferFrom}."
      },
      "transferOwnership(address)": {
        "details": "Transfers ownership of the contract to a new account (`newOwner`). Can only be called by the current owner."
      }
    },
    "version": 1
  },
  "userdoc": {
    "kind": "user",
    "methods": {},
    "version": 1
  }
}